{
  "contractName": "CentroSalud",
  "abi": [
    {
      "inputs": [
        {
          "internalType": "address",
          "name": "_direccion",
          "type": "address"
        }
      ],
      "stateMutability": "nonpayable",
      "type": "constructor"
    },
    {
      "anonymous": false,
      "inputs": [
        {
          "indexed": false,
          "internalType": "bool",
          "name": "",
          "type": "bool"
        },
        {
          "indexed": false,
          "internalType": "string",
          "name": "",
          "type": "string"
        }
      ],
      "name": "NuevoResultado",
      "type": "event"
    },
    {
      "inputs": [],
      "name": "DireccionCentroSalud",
      "outputs": [
        {
          "internalType": "address",
          "name": "",
          "type": "address"
        }
      ],
      "stateMutability": "view",
      "type": "function"
    },
    {
      "inputs": [],
      "name": "DireccionContrato",
      "outputs": [
        {
          "internalType": "address",
          "name": "",
          "type": "address"
        }
      ],
      "stateMutability": "view",
      "type": "function"
    },
    {
      "inputs": [],
      "name": "num",
      "outputs": [
        {
          "internalType": "uint256",
          "name": "",
          "type": "uint256"
        }
      ],
      "stateMutability": "view",
      "type": "function"
    },
    {
      "inputs": [
        {
          "internalType": "string",
          "name": "_idPersona",
          "type": "string"
        },
        {
          "internalType": "bool",
          "name": "_resultadoCOVID",
          "type": "bool"
        },
        {
          "internalType": "string",
          "name": "_codigoIPFS",
          "type": "string"
        }
      ],
      "name": "ResultadosPruebaCovid",
      "outputs": [],
      "stateMutability": "nonpayable",
      "type": "function"
    },
    {
      "inputs": [
        {
          "internalType": "string",
          "name": "_idPersona",
          "type": "string"
        }
      ],
      "name": "VisualizarResultados",
      "outputs": [
        {
          "internalType": "string",
          "name": "_resultadoPrueba",
          "type": "string"
        },
        {
          "internalType": "string",
          "name": "_codigoIPFS",
          "type": "string"
        }
      ],
      "stateMutability": "view",
      "type": "function"
    },
    {
      "inputs": [
        {
          "internalType": "uint256",
          "name": "_num",
          "type": "uint256"
        }
      ],
      "name": "RAAAA",
      "outputs": [],
      "stateMutability": "nonpayable",
      "type": "function"
    }
  ],
  "bytecode": "0x608060405234801561001057600080fd5b5060405161074c38038061074c83398101604081905261002f9161005d565b600080546001600160a01b039092166001600160a01b0319928316179055600180549091163017905561008d565b60006020828403121561006f57600080fd5b81516001600160a01b038116811461008657600080fd5b9392505050565b6106b08061009c6000396000f3fe608060405234801561001057600080fd5b50600436106100625760003560e01c80630ea87df0146100675780631e11cb41146100975780634e70b1dc146100ac578063630ea6e2146100c3578063746773c4146100d6578063dad6ebeb146100e9575b600080fd5b60005461007a906001600160a01b031681565b6040516001600160a01b0390911681526020015b60405180910390f35b6100aa6100a53660046104d2565b61010a565b005b6100b560025481565b60405190815260200161008e565b60015461007a906001600160a01b031681565b6100aa6100e436600461054f565b600255565b6100fc6100f7366004610495565b610233565b60405161008e9291906105cb565b60005433906001600160a01b031681146101815760405162461bcd60e51b815260206004820152602e60248201527f4e6f207469656e6573207065726d69736f73207061726120656a65637574617260448201526d1032b9ba3090333ab731b4b7b71760911b606482015260840160405180910390fd5b6000846040516020016101949190610594565b60408051808303601f19018152828252805160209182012083830183528715158452818401878152600082815260038452939093208451815460ff1916901515178155925180519195506101ef92600185019291019061036f565b509050507f5ce26dc28fccbf8bb2edec1d80991c362e4341d1b965a895736530bcb7df446084846040516102249291906105b0565b60405180910390a15050505050565b6060806000836040516020016102499190610594565b60408051601f1981840301815291815281516020928301206000818152600390935291205490915060609060ff161515600114156102a65750604080518082019091526008815267506f73697469766f60c01b60208201526102c7565b506040805180820190915260088152674e6567617469766f60c01b60208201525b6000828152600360205260409020600101805491945084916102e890610629565b80601f016020809104026020016040519081016040528092919081815260200182805461031490610629565b80156103615780601f1061033657610100808354040283529160200191610361565b820191906000526020600020905b81548152906001019060200180831161034457829003601f168201915b505050505092505050915091565b82805461037b90610629565b90600052602060002090601f01602090048101928261039d57600085556103e3565b82601f106103b657805160ff19168380011785556103e3565b828001600101855582156103e3579182015b828111156103e35782518255916020019190600101906103c8565b506103ef9291506103f3565b5090565b5b808211156103ef57600081556001016103f4565b600082601f83011261041957600080fd5b813567ffffffffffffffff8082111561043457610434610664565b604051601f8301601f19908116603f0116810190828211818310171561045c5761045c610664565b8160405283815286602085880101111561047557600080fd5b836020870160208301376000602085830101528094505050505092915050565b6000602082840312156104a757600080fd5b813567ffffffffffffffff8111156104be57600080fd5b6104ca84828501610408565b949350505050565b6000806000606084860312156104e757600080fd5b833567ffffffffffffffff808211156104ff57600080fd5b61050b87838801610408565b945060208601359150811515821461052257600080fd5b9092506040850135908082111561053857600080fd5b5061054586828701610408565b9150509250925092565b60006020828403121561056157600080fd5b5035919050565b600081518084526105808160208601602086016105f9565b601f01601f19169290920160200192915050565b600082516105a68184602087016105f9565b9190910192915050565b82151581526040602082015260006104ca6040830184610568565b6040815260006105de6040830185610568565b82810360208401526105f08185610568565b95945050505050565b60005b838110156106145781810151838201526020016105fc565b83811115610623576000848401525b50505050565b600181811c9082168061063d57607f821691505b6020821081141561065e57634e487b7160e01b600052602260045260246000fd5b50919050565b634e487b7160e01b600052604160045260246000fdfea264697066735822122056bde6b451be010df9e63a19ca0ab16dde42fda45070c1c47393b249792e622f64736f6c63430008060033",
  "immutableReferences": {},
  "source": "// SPDX-License-Identifier: MIT\r\npragma solidity >=0.7.0 < 0.9.0;\r\npragma experimental ABIEncoderV2;\r\n\r\n// Contrato autogestionable por el Centro de Salud \r\ncontract CentroSalud {\r\n    \r\n    // Direcciones iniciales \r\n    address public DireccionCentroSalud;\r\n    address public DireccionContrato;\r\n    uint public num;\r\n\r\n    constructor (address _direccion)  {\r\n        DireccionCentroSalud = _direccion;\r\n        DireccionContrato = address(this);\r\n    }\r\n    \r\n    // Mapping para relacionar el hash de la persona con los resultados (diagnostico, CODIGO IPFS)\r\n    mapping (bytes32 => Resultados) ResultadosCOVID;\r\n    \r\n    // Estructura de los resultados \r\n    struct Resultados {\r\n        bool diagnostico;\r\n        string CodigoIPFS;\r\n    }\r\n    \r\n    // Eventos\r\n    event NuevoResultado (bool, string);\r\n    \r\n    // Filtrar las funciones a ejecutar por el centro de salud \r\n    modifier UnicamenteCentroSalud(address _direccion) {\r\n        require (_direccion == DireccionCentroSalud, \"No tienes permisos para ejecutar esta funcion.\");\r\n        _;\r\n    }\r\n    \r\n    // Funcion para emitir un resultado de una prueba de COVID \r\n    // Formato de los campos de entrada: | 12345X | true | QmNZTbxobVxzsCv4uwvSrh5a8bw6zJKFmNYvKbeRdDrnjT\r\n    function ResultadosPruebaCovid(string memory _idPersona, bool _resultadoCOVID, string memory _codigoIPFS) public UnicamenteCentroSalud(msg.sender){\r\n        // Hash de la identificacion de la persona \r\n        bytes32 hash_idPersona = keccak256 (abi.encodePacked(_idPersona));\r\n        // Relacion del hash de la persona con la estructura de resultados \r\n        ResultadosCOVID[hash_idPersona] = Resultados(_resultadoCOVID, _codigoIPFS);\r\n        // Emision de un evento \r\n        emit NuevoResultado(_resultadoCOVID, _codigoIPFS);\r\n    }\r\n    \r\n    // Funcion que permita la visualizacion de los resultados \r\n    function VisualizarResultados(string memory _idPersona) public view returns (string memory _resultadoPrueba, string memory _codigoIPFS) {\r\n        // Hash de la identidad de la persona \r\n        bytes32 hash_idPersona = keccak256 (abi.encodePacked(_idPersona));\r\n        // Retorno de un booleano como un string \r\n        string memory resultadoPrueba;\r\n        if (ResultadosCOVID[hash_idPersona].diagnostico == true){\r\n            resultadoPrueba = \"Positivo\";\r\n        } else{\r\n            resultadoPrueba = \"Negativo\";\r\n        }\r\n        // Retorno de los parametros necesarios\r\n        _resultadoPrueba = resultadoPrueba;\r\n        _codigoIPFS = ResultadosCOVID[hash_idPersona].CodigoIPFS;\r\n    }\r\n\r\n    function RAAAA(uint _num) public {\r\n        num = _num;\r\n    }\r\n    \r\n    \r\n}\r\n",
  "sourcePath": "C:\\Users\\Gustavo\\Desktop\\FabricaSC\\src\\contracts\\CentroSalud.sol",
  "compiler": {
    "name": "solc",
    "version": "0.8.6+commit.11564f7e.Emscripten.clang"
  },
  "schemaVersion": "3.4.2",
  "updatedAt": "2022-10-21T21:43:58.089Z",
  "devdoc": {
    "kind": "dev",
    "methods": {},
    "version": 1
  },
  "userdoc": {
    "kind": "user",
    "methods": {},
    "version": 1
  }
}