{
  "contractName": "OMS_COVID",
  "abi": [
    {
      "inputs": [],
      "stateMutability": "nonpayable",
      "type": "constructor"
    },
    {
      "anonymous": false,
      "inputs": [
        {
          "indexed": false,
          "internalType": "address",
          "name": "",
          "type": "address"
        }
      ],
      "name": "NuevoCentroValidado",
      "type": "event"
    },
    {
      "anonymous": false,
      "inputs": [
        {
          "indexed": false,
          "internalType": "address",
          "name": "",
          "type": "address"
        },
        {
          "indexed": false,
          "internalType": "address",
          "name": "",
          "type": "address"
        }
      ],
      "name": "NuevoContrato",
      "type": "event"
    },
    {
      "anonymous": false,
      "inputs": [
        {
          "indexed": false,
          "internalType": "address",
          "name": "",
          "type": "address"
        }
      ],
      "name": "SolicitudAcceso",
      "type": "event"
    },
    {
      "inputs": [
        {
          "internalType": "address",
          "name": "",
          "type": "address"
        }
      ],
      "name": "CentroSalud_Contrato",
      "outputs": [
        {
          "internalType": "address",
          "name": "",
          "type": "address"
        }
      ],
      "stateMutability": "view",
      "type": "function",
      "constant": true
    },
    {
      "inputs": [],
      "name": "OMS",
      "outputs": [
        {
          "internalType": "address",
          "name": "",
          "type": "address"
        }
      ],
      "stateMutability": "view",
      "type": "function",
      "constant": true
    },
    {
      "inputs": [
        {
          "internalType": "address",
          "name": "",
          "type": "address"
        }
      ],
      "name": "Validacion_CentrosSalud",
      "outputs": [
        {
          "internalType": "bool",
          "name": "",
          "type": "bool"
        }
      ],
      "stateMutability": "view",
      "type": "function",
      "constant": true
    },
    {
      "inputs": [
        {
          "internalType": "uint256",
          "name": "",
          "type": "uint256"
        }
      ],
      "name": "direcciones_contratos_salud",
      "outputs": [
        {
          "internalType": "address",
          "name": "",
          "type": "address"
        }
      ],
      "stateMutability": "view",
      "type": "function",
      "constant": true
    },
    {
      "inputs": [],
      "name": "SolicitarAcceso",
      "outputs": [],
      "stateMutability": "nonpayable",
      "type": "function"
    },
    {
      "inputs": [],
      "name": "VisualizarSolicitudes",
      "outputs": [
        {
          "internalType": "address[]",
          "name": "",
          "type": "address[]"
        }
      ],
      "stateMutability": "view",
      "type": "function",
      "constant": true
    },
    {
      "inputs": [
        {
          "internalType": "address",
          "name": "_centroSalud",
          "type": "address"
        }
      ],
      "name": "CentrosSalud",
      "outputs": [],
      "stateMutability": "nonpayable",
      "type": "function"
    },
    {
      "inputs": [],
      "name": "FactoryCentroSalud",
      "outputs": [],
      "stateMutability": "nonpayable",
      "type": "function"
    },
    {
      "inputs": [
        {
          "internalType": "address",
          "name": "_ADD",
          "type": "address"
        }
      ],
      "name": "addNewSC",
      "outputs": [
        {
          "internalType": "address",
          "name": "",
          "type": "address"
        }
      ],
      "stateMutability": "view",
      "type": "function",
      "constant": true
    },
    {
      "inputs": [
        {
          "internalType": "address",
          "name": "_centroSalud",
          "type": "address"
        }
      ],
      "name": "verValidacion",
      "outputs": [
        {
          "internalType": "bool",
          "name": "",
          "type": "bool"
        }
      ],
      "stateMutability": "view",
      "type": "function",
      "constant": true
    }
  ],
  "bytecode": "0x608060405234801561001057600080fd5b50600080546001600160a01b03191633179055610dcb806100326000396000f3fe608060405234801561001057600080fd5b506004361061009e5760003560e01c8063751b06f311610066578063751b06f31461014e5780637610d05d1461017a5780639418e2f71461018d5780639687a42c146101b9578063bacf5ac7146101c157600080fd5b8063057dd608146100a35780630c21f0df146100d35780630eb79cda146100fc578063190318dd14610111578063535b83e71461011b575b600080fd5b6000546100b6906001600160a01b031681565b6040516001600160a01b0390911681526020015b60405180910390f35b6100b66100e1366004610565565b6002602052600090815260409020546001600160a01b031681565b6101046101d4565b6040516100ca91906105ae565b61011961026d565b005b61013e610129366004610565565b60016020526000908152604090205460ff1681565b60405190151581526020016100ca565b6100b661015c366004610565565b6001600160a01b039081166000908152600260205260409020541690565b6100b6610188366004610595565b6102e7565b61013e61019b366004610565565b6001600160a01b031660009081526001602052604090205460ff1690565b610119610311565b6101196101cf366004610565565b6104d0565b60005460609033906001600160a01b0316811461020c5760405162461bcd60e51b8152600401610203906105fb565b60405180910390fd5b600480548060200260200160405190810160405280929190818152602001828054801561026257602002820191906000526020600020905b81546001600160a01b03168152600190910190602001808311610244575b505050505091505090565b600480546001810182556000919091527f8a35acfbc15ff81a39ae7d344fd709f28e8600b4aa8c65c6b64bfe7fe36bd19b0180546001600160a01b031916339081179091556040519081527feba56e5f1457ce7bc7b40b05ba0b52c95aa6e677bc7309c9cbfc24da26a589749060200160405180910390a1565b600381815481106102f757600080fd5b6000918252602090912001546001600160a01b0316905081565b336000908152600260205260409020546001600160a01b0316156103775760405162461bcd60e51b815260206004820152601f60248201527f5961206375656e74617320636f6e20756e20534320646573706c656761646f006044820152606401610203565b3360009081526001602081905260409091205460ff161515146103f35760405162461bcd60e51b815260206004820152602e60248201527f4e6f207469656e6573207065726d69736f73207061726120656a65637574617260448201526d1032b9ba3090333ab731b4b7b71760911b6064820152608401610203565b60003360405161040290610558565b6001600160a01b039091168152602001604051809103906000f08015801561042e573d6000803e3d6000fd5b5060038054600181019091557fc2575a0e9e593c00f959f8c92f12db2869c3395a3b0502d05e2516446f71f85b0180546001600160a01b0383166001600160a01b0319918216811790925533600081815260026020908152604091829020805490941685179093558051938452918301529192507fe08a9f416b8c3655f59535f4609d69e3b126ca6c0591451ee1d49a6430ab39c6910160405180910390a150565b60005433906001600160a01b031681146104fc5760405162461bcd60e51b8152600401610203906105fb565b6001600160a01b038216600081815260016020818152604092839020805460ff191690921790915590519182527f49fbbe88355a886408e8788b96b735508be2a0bec15825ef8ffc24aa5c6cb829910160405180910390a15050565b61074c8061064a83390190565b60006020828403121561057757600080fd5b81356001600160a01b038116811461058e57600080fd5b9392505050565b6000602082840312156105a757600080fd5b5035919050565b6020808252825182820181905260009190848201906040850190845b818110156105ef5783516001600160a01b0316835292840192918401916001016105ca565b50909695505050505050565b6020808252602e908201527f4e6f207469656e6573207065726d69736f732070617261207265616c697a617260408201526d1032b9ba3090333ab731b4b7b71760911b60608201526080019056fe608060405234801561001057600080fd5b5060405161074c38038061074c83398101604081905261002f9161005d565b600080546001600160a01b039092166001600160a01b0319928316179055600180549091163017905561008d565b60006020828403121561006f57600080fd5b81516001600160a01b038116811461008657600080fd5b9392505050565b6106b08061009c6000396000f3fe608060405234801561001057600080fd5b50600436106100625760003560e01c80630ea87df0146100675780631e11cb41146100975780634e70b1dc146100ac578063630ea6e2146100c3578063746773c4146100d6578063dad6ebeb146100e9575b600080fd5b60005461007a906001600160a01b031681565b6040516001600160a01b0390911681526020015b60405180910390f35b6100aa6100a53660046104d2565b61010a565b005b6100b560025481565b60405190815260200161008e565b60015461007a906001600160a01b031681565b6100aa6100e436600461054f565b600255565b6100fc6100f7366004610495565b610233565b60405161008e9291906105cb565b60005433906001600160a01b031681146101815760405162461bcd60e51b815260206004820152602e60248201527f4e6f207469656e6573207065726d69736f73207061726120656a65637574617260448201526d1032b9ba3090333ab731b4b7b71760911b606482015260840160405180910390fd5b6000846040516020016101949190610594565b60408051808303601f19018152828252805160209182012083830183528715158452818401878152600082815260038452939093208451815460ff1916901515178155925180519195506101ef92600185019291019061036f565b509050507f5ce26dc28fccbf8bb2edec1d80991c362e4341d1b965a895736530bcb7df446084846040516102249291906105b0565b60405180910390a15050505050565b6060806000836040516020016102499190610594565b60408051601f1981840301815291815281516020928301206000818152600390935291205490915060609060ff161515600114156102a65750604080518082019091526008815267506f73697469766f60c01b60208201526102c7565b506040805180820190915260088152674e6567617469766f60c01b60208201525b6000828152600360205260409020600101805491945084916102e890610629565b80601f016020809104026020016040519081016040528092919081815260200182805461031490610629565b80156103615780601f1061033657610100808354040283529160200191610361565b820191906000526020600020905b81548152906001019060200180831161034457829003601f168201915b505050505092505050915091565b82805461037b90610629565b90600052602060002090601f01602090048101928261039d57600085556103e3565b82601f106103b657805160ff19168380011785556103e3565b828001600101855582156103e3579182015b828111156103e35782518255916020019190600101906103c8565b506103ef9291506103f3565b5090565b5b808211156103ef57600081556001016103f4565b600082601f83011261041957600080fd5b813567ffffffffffffffff8082111561043457610434610664565b604051601f8301601f19908116603f0116810190828211818310171561045c5761045c610664565b8160405283815286602085880101111561047557600080fd5b836020870160208301376000602085830101528094505050505092915050565b6000602082840312156104a757600080fd5b813567ffffffffffffffff8111156104be57600080fd5b6104ca84828501610408565b949350505050565b6000806000606084860312156104e757600080fd5b833567ffffffffffffffff808211156104ff57600080fd5b61050b87838801610408565b945060208601359150811515821461052257600080fd5b9092506040850135908082111561053857600080fd5b5061054586828701610408565b9150509250925092565b60006020828403121561056157600080fd5b5035919050565b600081518084526105808160208601602086016105f9565b601f01601f19169290920160200192915050565b600082516105a68184602087016105f9565b9190910192915050565b82151581526040602082015260006104ca6040830184610568565b6040815260006105de6040830185610568565b82810360208401526105f08185610568565b95945050505050565b60005b838110156106145781810151838201526020016105fc565b83811115610623576000848401525b50505050565b600181811c9082168061063d57607f821691505b6020821081141561065e57634e487b7160e01b600052602260045260246000fd5b50919050565b634e487b7160e01b600052604160045260246000fdfea264697066735822122056bde6b451be010df9e63a19ca0ab16dde42fda45070c1c47393b249792e622f64736f6c63430008060033a26469706673582212202e1a5204fdc58f203b9fb8a53e737331f9ee8694031d67578b0d0bae1f0a880e64736f6c63430008060033",
  "immutableReferences": {},
  "source": "// SPDX-License-Identifier: GPL-3.0\npragma solidity >=0.7.0 < 0.9.0;\npragma experimental ABIEncoderV2;\nimport \"./CentroSalud.sol\";\n\ncontract OMS_COVID {\n    \n    // Direccion de la OMS -> Owner / Dueo del contrato \n    address public OMS;\n    \n    // Constructor del contrato \n    constructor ()  {\n        OMS = msg.sender;\n    }\n    \n    // Mapping para relacionar los centros de salud (direccion/address) con la validez del sistema de gestion\n    mapping (address => bool) public Validacion_CentrosSalud;\n    \n    // Relacionar una direccion de un centro de salud con su contrato \n    mapping (address => address) public CentroSalud_Contrato;\n    \n    // Ejmeplo 1: 0x5B38Da6a701c568545dCfcB03FcB875f56beddC4 -> true = TIENE PERMISOS PARA CREAR SU SMART CONTRACT\n    // Ejmeplo 2: 0xAb8483F64d9C6d1EcF9b849Ae677dD3315835cb2 -> false = NO TIENE PERMISOS PARA CREAR SU SMART CONTRACT\n    \n    // Array de direcciones que almacene los contratos de los centros de salud validados \n    address [] public direcciones_contratos_salud;\n    \n    // Array de las direcciones que soliciten acceso \n    address [] Solicitudes;\n    \n    // Eventos a emitir \n    event SolicitudAcceso (address);\n    event NuevoCentroValidado (address);\n    event NuevoContrato (address, address);\n    \n    \n    // Modificador que permita unicamente la ejecucion de funciones por la OMS \n    modifier UnicamenteOMS(address _direccion) {\n        require(_direccion == OMS, \"No tienes permisos para realizar esta funcion.\");\n        _;\n    }\n    \n    // Funcion para solicitar acceso al sistema medico \n    function SolicitarAcceso() public {\n        // Almacenar la direccion en el array de solicitudes \n        Solicitudes.push(msg.sender);\n        // Emision del evento \n        emit SolicitudAcceso (msg.sender);\n    }\n    \n    // Funcion que visualiza las direcciones que han solicitado este acceso \n    function VisualizarSolicitudes() public view UnicamenteOMS(msg.sender) returns (address [] memory){\n        return Solicitudes;\n    }\n    \n    // Funcion para validar nuevos centros de salud que puedan autogestionarse -> UnicamenteOMS\n    function CentrosSalud (address _centroSalud) public UnicamenteOMS(msg.sender) {\n        // Asignacion del estado de validez al centro de salud \n        Validacion_CentrosSalud[_centroSalud] = true;\n        // Emision del evento \n        emit NuevoCentroValidado(_centroSalud);\n    }\n    \n    \n    // Funcion que permita crear un contrato inteligente de un centro de salud \n    function FactoryCentroSalud() public {\n        // Solo puede crear uno por cuenta aceptada\n        require (addNewSC(msg.sender) == address(0), \"Ya cuentas con un SC desplegado\");\n        // Filtrado para que unicamente los centros de salud validados sean capaces de ejecutar esta funcion \n        require (Validacion_CentrosSalud[msg.sender] == true, \"No tienes permisos para ejecutar esta funcion.\");\n        // Generar un Smart Contract -> Generar su direccion \n        address contrato_CentroSalud = address (new CentroSalud(msg.sender));\n        // Almacenamiento la direccion del contrato en el array \n        direcciones_contratos_salud.push(contrato_CentroSalud);\n        // Relacion entre el centro de salud y su contrato \n        CentroSalud_Contrato[msg.sender] = contrato_CentroSalud;\n        // Emisio del evento \n        emit NuevoContrato(contrato_CentroSalud, msg.sender);\n        \n    }\n\n    function addNewSC(address _ADD) public view returns(address){\n        return CentroSalud_Contrato[_ADD];\n    }\n    \n    function verValidacion(address _centroSalud) public view returns(bool) {\n        return Validacion_CentrosSalud[_centroSalud];\n    }\n    \n}\n\n\n",
  "sourcePath": "C:\\Users\\Gustavo\\Desktop\\FabricaSC\\src\\contracts\\OMS_COVID.sol",
  "compiler": {
    "name": "solc",
    "version": "0.8.6+commit.11564f7e.Emscripten.clang"
  },
  "schemaVersion": "3.4.2",
  "updatedAt": "2022-10-21T21:44:00.853Z",
  "networkType": "ethereum",
  "devdoc": {
    "kind": "dev",
    "methods": {},
    "version": 1
  },
  "userdoc": {
    "kind": "user",
    "methods": {},
    "version": 1
  }
}